{
	"contracts/EthSender.sol": {
		"EthSender": {
			"abi": [
				{
					"inputs": [],
					"stateMutability": "nonpayable",
					"type": "constructor"
				},
				{
					"inputs": [
						{
							"internalType": "uint256",
							"name": "_balance",
							"type": "uint256"
						},
						{
							"internalType": "uint256",
							"name": "_amountToSend",
							"type": "uint256"
						}
					],
					"name": "InsufficientFunds",
					"type": "error"
				},
				{
					"inputs": [
						{
							"internalType": "string",
							"name": "message",
							"type": "string"
						}
					],
					"name": "InsufficientPrivileges",
					"type": "error"
				},
				{
					"inputs": [
						{
							"internalType": "uint256",
							"name": "_amountToSend",
							"type": "uint256"
						},
						{
							"internalType": "address",
							"name": "_recipient",
							"type": "address"
						}
					],
					"name": "TransactionFailed",
					"type": "error"
				},
				{
					"anonymous": false,
					"inputs": [
						{
							"indexed": false,
							"internalType": "address",
							"name": "_sender",
							"type": "address"
						},
						{
							"indexed": false,
							"internalType": "uint256",
							"name": "_amount",
							"type": "uint256"
						}
					],
					"name": "EthReceived",
					"type": "event"
				},
				{
					"anonymous": false,
					"inputs": [
						{
							"indexed": false,
							"internalType": "uint256",
							"name": "_amount",
							"type": "uint256"
						},
						{
							"indexed": false,
							"internalType": "address",
							"name": "_recipient",
							"type": "address"
						}
					],
					"name": "EthSent",
					"type": "event"
				},
				{
					"anonymous": false,
					"inputs": [
						{
							"indexed": false,
							"internalType": "uint256",
							"name": "_amount",
							"type": "uint256"
						}
					],
					"name": "EthWithdrawn",
					"type": "event"
				},
				{
					"inputs": [],
					"name": "deposit",
					"outputs": [],
					"stateMutability": "payable",
					"type": "function"
				},
				{
					"inputs": [],
					"name": "getContractBalance",
					"outputs": [
						{
							"internalType": "uint256",
							"name": "",
							"type": "uint256"
						}
					],
					"stateMutability": "view",
					"type": "function"
				},
				{
					"inputs": [],
					"name": "owner",
					"outputs": [
						{
							"internalType": "address",
							"name": "",
							"type": "address"
						}
					],
					"stateMutability": "view",
					"type": "function"
				},
				{
					"inputs": [
						{
							"internalType": "address payable",
							"name": "_recipient",
							"type": "address"
						},
						{
							"internalType": "uint256",
							"name": "_amount",
							"type": "uint256"
						}
					],
					"name": "sendEth",
					"outputs": [],
					"stateMutability": "payable",
					"type": "function"
				}
			],
			"devdoc": {
				"kind": "dev",
				"methods": {},
				"version": 1
			},
			"evm": {
				"assembly": "    /* \"contracts/EthSender.sol\":181:1076  contract EthSender is IEvents, IErrors {... */\n  mstore(0x40, 0x80)\n    /* \"contracts/EthSender.sol\":292:341  constructor() {... */\n  callvalue\n  dup1\n  iszero\n  tag_1\n  jumpi\n  revert(0x00, 0x00)\ntag_1:\n  pop\n    /* \"contracts/EthSender.sol\":324:334  msg.sender */\n  caller\n    /* \"contracts/EthSender.sol\":316:321  owner */\n  0x00\n  0x00\n    /* \"contracts/EthSender.sol\":316:334  owner = msg.sender */\n  0x0100\n  exp\n  dup2\n  sload\n  dup2\n  0xffffffffffffffffffffffffffffffffffffffff\n  mul\n  not\n  and\n  swap1\n  dup4\n  0xffffffffffffffffffffffffffffffffffffffff\n  and\n  mul\n  or\n  swap1\n  sstore\n  pop\n    /* \"contracts/EthSender.sol\":181:1076  contract EthSender is IEvents, IErrors {... */\n  dataSize(sub_0)\n  dup1\n  dataOffset(sub_0)\n  0x00\n  codecopy\n  0x00\n  return\nstop\n\nsub_0: assembly {\n        /* \"contracts/EthSender.sol\":181:1076  contract EthSender is IEvents, IErrors {... */\n      mstore(0x40, 0x80)\n      jumpi(tag_1, lt(calldatasize, 0x04))\n      shr(0xe0, calldataload(0x00))\n      dup1\n      0x49dcbc5e\n      eq\n      tag_2\n      jumpi\n      dup1\n      0x6f9fb98a\n      eq\n      tag_3\n      jumpi\n      dup1\n      0x8da5cb5b\n      eq\n      tag_4\n      jumpi\n      dup1\n      0xd0e30db0\n      eq\n      tag_5\n      jumpi\n    tag_1:\n      revert(0x00, 0x00)\n        /* \"contracts/EthSender.sol\":742:1074  function sendEth(address payable _recipient, uint _amount) ... */\n    tag_2:\n      tag_6\n      0x04\n      dup1\n      calldatasize\n      sub\n      dup2\n      add\n      swap1\n      tag_7\n      swap2\n      swap1\n      tag_8\n      jump\t// in\n    tag_7:\n      tag_9\n      jump\t// in\n    tag_6:\n      stop\n        /* \"contracts/EthSender.sol\":574:676  function getContractBalance() public view returns (uint) {... */\n    tag_3:\n      callvalue\n      dup1\n      iszero\n      tag_10\n      jumpi\n      revert(0x00, 0x00)\n    tag_10:\n      pop\n      tag_11\n      tag_12\n      jump\t// in\n    tag_11:\n      mload(0x40)\n      tag_13\n      swap2\n      swap1\n      tag_14\n      jump\t// in\n    tag_13:\n      mload(0x40)\n      dup1\n      swap2\n      sub\n      swap1\n      return\n        /* \"contracts/EthSender.sol\":226:246  address public owner */\n    tag_4:\n      callvalue\n      dup1\n      iszero\n      tag_15\n      jumpi\n      revert(0x00, 0x00)\n    tag_15:\n      pop\n      tag_16\n      tag_17\n      jump\t// in\n    tag_16:\n      mload(0x40)\n      tag_18\n      swap2\n      swap1\n      tag_19\n      jump\t// in\n    tag_18:\n      mload(0x40)\n      dup1\n      swap2\n      sub\n      swap1\n      return\n        /* \"contracts/EthSender.sol\":682:736  function deposit() external payable {... */\n    tag_5:\n      tag_20\n      tag_21\n      jump\t// in\n    tag_20:\n      stop\n        /* \"contracts/EthSender.sol\":742:1074  function sendEth(address payable _recipient, uint _amount) ... */\n    tag_9:\n        /* \"contracts/EthSender.sol\":819:826  _amount */\n      dup1\n        /* \"contracts/EthSender.sol\":399:412  uint _balance */\n      0x00\n        /* \"contracts/EthSender.sol\":415:436  address(this).balance */\n      selfbalance\n        /* \"contracts/EthSender.sol\":399:436  uint _balance = address(this).balance */\n      swap1\n      pop\n        /* \"contracts/EthSender.sol\":466:474  _balance */\n      dup1\n        /* \"contracts/EthSender.sol\":450:463  _amountToSend */\n      dup3\n        /* \"contracts/EthSender.sol\":450:474  _amountToSend > _balance */\n      gt\n        /* \"contracts/EthSender.sol\":447:550  if(_amountToSend > _balance) {... */\n      iszero\n      tag_23\n      jumpi\n        /* \"contracts/EthSender.sol\":515:523  _balance */\n      dup1\n        /* \"contracts/EthSender.sol\":525:538  _amountToSend */\n      dup3\n        /* \"contracts/EthSender.sol\":497:539  InsufficientFunds(_balance, _amountToSend) */\n      mload(0x40)\n      0x03eb8b5400000000000000000000000000000000000000000000000000000000\n      dup2\n      mstore\n      0x04\n      add\n      tag_24\n      swap3\n      swap2\n      swap1\n      tag_25\n      jump\t// in\n    tag_24:\n      mload(0x40)\n      dup1\n      swap2\n      sub\n      swap1\n      revert\n        /* \"contracts/EthSender.sol\":447:550  if(_amountToSend > _balance) {... */\n    tag_23:\n        /* \"contracts/EthSender.sol\":868:880  bool success */\n      0x00\n        /* \"contracts/EthSender.sol\":894:904  _recipient */\n      dup5\n        /* \"contracts/EthSender.sol\":886:910  address(_recipient).call */\n      0xffffffffffffffffffffffffffffffffffffffff\n      and\n        /* \"contracts/EthSender.sol\":918:925  _amount */\n      dup5\n        /* \"contracts/EthSender.sol\":886:930  address(_recipient).call{value: _amount}(\"\") */\n      mload(0x40)\n      tag_27\n      swap1\n      tag_28\n      jump\t// in\n    tag_27:\n      0x00\n      mload(0x40)\n      dup1\n      dup4\n      sub\n      dup2\n      dup6\n      dup8\n      gas\n      call\n      swap3\n      pop\n      pop\n      pop\n      returndatasize\n      dup1\n      0x00\n      dup2\n      eq\n      tag_31\n      jumpi\n      mload(0x40)\n      swap2\n      pop\n      and(add(returndatasize, 0x3f), not(0x1f))\n      dup3\n      add\n      0x40\n      mstore\n      returndatasize\n      dup3\n      mstore\n      returndatasize\n      0x00\n      0x20\n      dup5\n      add\n      returndatacopy\n      jump(tag_30)\n    tag_31:\n      0x60\n      swap2\n      pop\n    tag_30:\n      pop\n        /* \"contracts/EthSender.sol\":867:930  (bool success, ) = address(_recipient).call{value: _amount}(\"\") */\n      pop\n      swap1\n      pop\n        /* \"contracts/EthSender.sol\":945:952  success */\n      dup1\n        /* \"contracts/EthSender.sol\":941:1024  if(!success) {... */\n      tag_32\n      jumpi\n        /* \"contracts/EthSender.sol\":993:1000  _amount */\n      dup4\n        /* \"contracts/EthSender.sol\":1002:1012  _recipient */\n      dup6\n        /* \"contracts/EthSender.sol\":975:1013  TransactionFailed(_amount, _recipient) */\n      mload(0x40)\n      0xca77360300000000000000000000000000000000000000000000000000000000\n      dup2\n      mstore\n      0x04\n      add\n      tag_33\n      swap3\n      swap2\n      swap1\n      tag_34\n      jump\t// in\n    tag_33:\n      mload(0x40)\n      dup1\n      swap2\n      sub\n      swap1\n      revert\n        /* \"contracts/EthSender.sol\":941:1024  if(!success) {... */\n    tag_32:\n        /* \"contracts/EthSender.sol\":1039:1067  EthSent(_amount, _recipient) */\n      0x4ee1338359c1b5a98bc94ce977ede958f48bd5d443611d7e0845cb5f36f17dde\n        /* \"contracts/EthSender.sol\":1047:1054  _amount */\n      dup5\n        /* \"contracts/EthSender.sol\":1056:1066  _recipient */\n      dup7\n        /* \"contracts/EthSender.sol\":1039:1067  EthSent(_amount, _recipient) */\n      mload(0x40)\n      tag_35\n      swap3\n      swap2\n      swap1\n      tag_34\n      jump\t// in\n    tag_35:\n      mload(0x40)\n      dup1\n      swap2\n      sub\n      swap1\n      log1\n        /* \"contracts/EthSender.sol\":857:1074  {... */\n      pop\n        /* \"contracts/EthSender.sol\":389:568  {... */\n      pop\n        /* \"contracts/EthSender.sol\":742:1074  function sendEth(address payable _recipient, uint _amount) ... */\n      pop\n      pop\n      pop\n      jump\t// out\n        /* \"contracts/EthSender.sol\":574:676  function getContractBalance() public view returns (uint) {... */\n    tag_12:\n        /* \"contracts/EthSender.sol\":625:629  uint */\n      0x00\n        /* \"contracts/EthSender.sol\":648:669  address(this).balance */\n      selfbalance\n        /* \"contracts/EthSender.sol\":641:669  return address(this).balance */\n      swap1\n      pop\n        /* \"contracts/EthSender.sol\":574:676  function getContractBalance() public view returns (uint) {... */\n      swap1\n      jump\t// out\n        /* \"contracts/EthSender.sol\":226:246  address public owner */\n    tag_17:\n      0x00\n      0x00\n      swap1\n      sload\n      swap1\n      0x0100\n      exp\n      swap1\n      div\n      0xffffffffffffffffffffffffffffffffffffffff\n      and\n      dup2\n      jump\t// out\n        /* \"contracts/EthSender.sol\":682:736  function deposit() external payable {... */\n    tag_21:\n      jump\t// out\n        /* \"#utility.yul\":88:205   */\n    tag_39:\n        /* \"#utility.yul\":197:198   */\n      0x00\n        /* \"#utility.yul\":194:195   */\n      0x00\n        /* \"#utility.yul\":187:199   */\n      revert\n        /* \"#utility.yul\":334:460   */\n    tag_41:\n        /* \"#utility.yul\":371:378   */\n      0x00\n        /* \"#utility.yul\":411:453   */\n      0xffffffffffffffffffffffffffffffffffffffff\n        /* \"#utility.yul\":404:409   */\n      dup3\n        /* \"#utility.yul\":400:454   */\n      and\n        /* \"#utility.yul\":389:454   */\n      swap1\n      pop\n        /* \"#utility.yul\":334:460   */\n      swap2\n      swap1\n      pop\n      jump\t// out\n        /* \"#utility.yul\":466:570   */\n    tag_42:\n        /* \"#utility.yul\":511:518   */\n      0x00\n        /* \"#utility.yul\":540:564   */\n      tag_65\n        /* \"#utility.yul\":558:563   */\n      dup3\n        /* \"#utility.yul\":540:564   */\n      tag_41\n      jump\t// in\n    tag_65:\n        /* \"#utility.yul\":529:564   */\n      swap1\n      pop\n        /* \"#utility.yul\":466:570   */\n      swap2\n      swap1\n      pop\n      jump\t// out\n        /* \"#utility.yul\":576:714   */\n    tag_43:\n        /* \"#utility.yul\":657:689   */\n      tag_67\n        /* \"#utility.yul\":683:688   */\n      dup2\n        /* \"#utility.yul\":657:689   */\n      tag_42\n      jump\t// in\n    tag_67:\n        /* \"#utility.yul\":650:655   */\n      dup2\n        /* \"#utility.yul\":647:690   */\n      eq\n        /* \"#utility.yul\":637:708   */\n      tag_68\n      jumpi\n        /* \"#utility.yul\":704:705   */\n      0x00\n        /* \"#utility.yul\":701:702   */\n      0x00\n        /* \"#utility.yul\":694:706   */\n      revert\n        /* \"#utility.yul\":637:708   */\n    tag_68:\n        /* \"#utility.yul\":576:714   */\n      pop\n      jump\t// out\n        /* \"#utility.yul\":720:875   */\n    tag_44:\n        /* \"#utility.yul\":774:779   */\n      0x00\n        /* \"#utility.yul\":812:818   */\n      dup2\n        /* \"#utility.yul\":799:819   */\n      calldataload\n        /* \"#utility.yul\":790:819   */\n      swap1\n      pop\n        /* \"#utility.yul\":828:869   */\n      tag_70\n        /* \"#utility.yul\":863:868   */\n      dup2\n        /* \"#utility.yul\":828:869   */\n      tag_43\n      jump\t// in\n    tag_70:\n        /* \"#utility.yul\":720:875   */\n      swap3\n      swap2\n      pop\n      pop\n      jump\t// out\n        /* \"#utility.yul\":881:958   */\n    tag_45:\n        /* \"#utility.yul\":918:925   */\n      0x00\n        /* \"#utility.yul\":947:952   */\n      dup2\n        /* \"#utility.yul\":936:952   */\n      swap1\n      pop\n        /* \"#utility.yul\":881:958   */\n      swap2\n      swap1\n      pop\n      jump\t// out\n        /* \"#utility.yul\":964:1086   */\n    tag_46:\n        /* \"#utility.yul\":1037:1061   */\n      tag_73\n        /* \"#utility.yul\":1055:1060   */\n      dup2\n        /* \"#utility.yul\":1037:1061   */\n      tag_45\n      jump\t// in\n    tag_73:\n        /* \"#utility.yul\":1030:1035   */\n      dup2\n        /* \"#utility.yul\":1027:1062   */\n      eq\n        /* \"#utility.yul\":1017:1080   */\n      tag_74\n      jumpi\n        /* \"#utility.yul\":1076:1077   */\n      0x00\n        /* \"#utility.yul\":1073:1074   */\n      0x00\n        /* \"#utility.yul\":1066:1078   */\n      revert\n        /* \"#utility.yul\":1017:1080   */\n    tag_74:\n        /* \"#utility.yul\":964:1086   */\n      pop\n      jump\t// out\n        /* \"#utility.yul\":1092:1231   */\n    tag_47:\n        /* \"#utility.yul\":1138:1143   */\n      0x00\n        /* \"#utility.yul\":1176:1182   */\n      dup2\n        /* \"#utility.yul\":1163:1183   */\n      calldataload\n        /* \"#utility.yul\":1154:1183   */\n      swap1\n      pop\n        /* \"#utility.yul\":1192:1225   */\n      tag_76\n        /* \"#utility.yul\":1219:1224   */\n      dup2\n        /* \"#utility.yul\":1192:1225   */\n      tag_46\n      jump\t// in\n    tag_76:\n        /* \"#utility.yul\":1092:1231   */\n      swap3\n      swap2\n      pop\n      pop\n      jump\t// out\n        /* \"#utility.yul\":1237:1727   */\n    tag_8:\n        /* \"#utility.yul\":1313:1319   */\n      0x00\n        /* \"#utility.yul\":1321:1327   */\n      0x00\n        /* \"#utility.yul\":1370:1372   */\n      0x40\n        /* \"#utility.yul\":1358:1367   */\n      dup4\n        /* \"#utility.yul\":1349:1356   */\n      dup6\n        /* \"#utility.yul\":1345:1368   */\n      sub\n        /* \"#utility.yul\":1341:1373   */\n      slt\n        /* \"#utility.yul\":1338:1457   */\n      iszero\n      tag_78\n      jumpi\n        /* \"#utility.yul\":1376:1455   */\n      tag_79\n      tag_39\n      jump\t// in\n    tag_79:\n        /* \"#utility.yul\":1338:1457   */\n    tag_78:\n        /* \"#utility.yul\":1496:1497   */\n      0x00\n        /* \"#utility.yul\":1521:1582   */\n      tag_80\n        /* \"#utility.yul\":1574:1581   */\n      dup6\n        /* \"#utility.yul\":1565:1571   */\n      dup3\n        /* \"#utility.yul\":1554:1563   */\n      dup7\n        /* \"#utility.yul\":1550:1572   */\n      add\n        /* \"#utility.yul\":1521:1582   */\n      tag_44\n      jump\t// in\n    tag_80:\n        /* \"#utility.yul\":1511:1582   */\n      swap3\n      pop\n        /* \"#utility.yul\":1467:1592   */\n      pop\n        /* \"#utility.yul\":1631:1633   */\n      0x20\n        /* \"#utility.yul\":1657:1710   */\n      tag_81\n        /* \"#utility.yul\":1702:1709   */\n      dup6\n        /* \"#utility.yul\":1693:1699   */\n      dup3\n        /* \"#utility.yul\":1682:1691   */\n      dup7\n        /* \"#utility.yul\":1678:1700   */\n      add\n        /* \"#utility.yul\":1657:1710   */\n      tag_47\n      jump\t// in\n    tag_81:\n        /* \"#utility.yul\":1647:1710   */\n      swap2\n      pop\n        /* \"#utility.yul\":1602:1720   */\n      pop\n        /* \"#utility.yul\":1237:1727   */\n      swap3\n      pop\n      swap3\n      swap1\n      pop\n      jump\t// out\n        /* \"#utility.yul\":1733:1851   */\n    tag_48:\n        /* \"#utility.yul\":1820:1844   */\n      tag_83\n        /* \"#utility.yul\":1838:1843   */\n      dup2\n        /* \"#utility.yul\":1820:1844   */\n      tag_45\n      jump\t// in\n    tag_83:\n        /* \"#utility.yul\":1815:1818   */\n      dup3\n        /* \"#utility.yul\":1808:1845   */\n      mstore\n        /* \"#utility.yul\":1733:1851   */\n      pop\n      pop\n      jump\t// out\n        /* \"#utility.yul\":1857:2079   */\n    tag_14:\n        /* \"#utility.yul\":1950:1954   */\n      0x00\n        /* \"#utility.yul\":1988:1990   */\n      0x20\n        /* \"#utility.yul\":1977:1986   */\n      dup3\n        /* \"#utility.yul\":1973:1991   */\n      add\n        /* \"#utility.yul\":1965:1991   */\n      swap1\n      pop\n        /* \"#utility.yul\":2001:2072   */\n      tag_85\n        /* \"#utility.yul\":2069:2070   */\n      0x00\n        /* \"#utility.yul\":2058:2067   */\n      dup4\n        /* \"#utility.yul\":2054:2071   */\n      add\n        /* \"#utility.yul\":2045:2051   */\n      dup5\n        /* \"#utility.yul\":2001:2072   */\n      tag_48\n      jump\t// in\n    tag_85:\n        /* \"#utility.yul\":1857:2079   */\n      swap3\n      swap2\n      pop\n      pop\n      jump\t// out\n        /* \"#utility.yul\":2085:2181   */\n    tag_49:\n        /* \"#utility.yul\":2122:2129   */\n      0x00\n        /* \"#utility.yul\":2151:2175   */\n      tag_87\n        /* \"#utility.yul\":2169:2174   */\n      dup3\n        /* \"#utility.yul\":2151:2175   */\n      tag_41\n      jump\t// in\n    tag_87:\n        /* \"#utility.yul\":2140:2175   */\n      swap1\n      pop\n        /* \"#utility.yul\":2085:2181   */\n      swap2\n      swap1\n      pop\n      jump\t// out\n        /* \"#utility.yul\":2187:2305   */\n    tag_50:\n        /* \"#utility.yul\":2274:2298   */\n      tag_89\n        /* \"#utility.yul\":2292:2297   */\n      dup2\n        /* \"#utility.yul\":2274:2298   */\n      tag_49\n      jump\t// in\n    tag_89:\n        /* \"#utility.yul\":2269:2272   */\n      dup3\n        /* \"#utility.yul\":2262:2299   */\n      mstore\n        /* \"#utility.yul\":2187:2305   */\n      pop\n      pop\n      jump\t// out\n        /* \"#utility.yul\":2311:2533   */\n    tag_19:\n        /* \"#utility.yul\":2404:2408   */\n      0x00\n        /* \"#utility.yul\":2442:2444   */\n      0x20\n        /* \"#utility.yul\":2431:2440   */\n      dup3\n        /* \"#utility.yul\":2427:2445   */\n      add\n        /* \"#utility.yul\":2419:2445   */\n      swap1\n      pop\n        /* \"#utility.yul\":2455:2526   */\n      tag_91\n        /* \"#utility.yul\":2523:2524   */\n      0x00\n        /* \"#utility.yul\":2512:2521   */\n      dup4\n        /* \"#utility.yul\":2508:2525   */\n      add\n        /* \"#utility.yul\":2499:2505   */\n      dup5\n        /* \"#utility.yul\":2455:2526   */\n      tag_50\n      jump\t// in\n    tag_91:\n        /* \"#utility.yul\":2311:2533   */\n      swap3\n      swap2\n      pop\n      pop\n      jump\t// out\n        /* \"#utility.yul\":2539:2871   */\n    tag_25:\n        /* \"#utility.yul\":2660:2664   */\n      0x00\n        /* \"#utility.yul\":2698:2700   */\n      0x40\n        /* \"#utility.yul\":2687:2696   */\n      dup3\n        /* \"#utility.yul\":2683:2701   */\n      add\n        /* \"#utility.yul\":2675:2701   */\n      swap1\n      pop\n        /* \"#utility.yul\":2711:2782   */\n      tag_93\n        /* \"#utility.yul\":2779:2780   */\n      0x00\n        /* \"#utility.yul\":2768:2777   */\n      dup4\n        /* \"#utility.yul\":2764:2781   */\n      add\n        /* \"#utility.yul\":2755:2761   */\n      dup6\n        /* \"#utility.yul\":2711:2782   */\n      tag_48\n      jump\t// in\n    tag_93:\n        /* \"#utility.yul\":2792:2864   */\n      tag_94\n        /* \"#utility.yul\":2860:2862   */\n      0x20\n        /* \"#utility.yul\":2849:2858   */\n      dup4\n        /* \"#utility.yul\":2845:2863   */\n      add\n        /* \"#utility.yul\":2836:2842   */\n      dup5\n        /* \"#utility.yul\":2792:2864   */\n      tag_48\n      jump\t// in\n    tag_94:\n        /* \"#utility.yul\":2539:2871   */\n      swap4\n      swap3\n      pop\n      pop\n      pop\n      jump\t// out\n        /* \"#utility.yul\":2877:3024   */\n    tag_51:\n        /* \"#utility.yul\":2978:2989   */\n      0x00\n        /* \"#utility.yul\":3015:3018   */\n      dup2\n        /* \"#utility.yul\":3000:3018   */\n      swap1\n      pop\n        /* \"#utility.yul\":2877:3024   */\n      swap3\n      swap2\n      pop\n      pop\n      jump\t// out\n        /* \"#utility.yul\":3030:3144   */\n    tag_52:\n      pop\n      jump\t// out\n        /* \"#utility.yul\":3150:3548   */\n    tag_53:\n        /* \"#utility.yul\":3309:3312   */\n      0x00\n        /* \"#utility.yul\":3330:3413   */\n      tag_98\n        /* \"#utility.yul\":3411:3412   */\n      0x00\n        /* \"#utility.yul\":3406:3409   */\n      dup4\n        /* \"#utility.yul\":3330:3413   */\n      tag_51\n      jump\t// in\n    tag_98:\n        /* \"#utility.yul\":3323:3413   */\n      swap2\n      pop\n        /* \"#utility.yul\":3422:3515   */\n      tag_99\n        /* \"#utility.yul\":3511:3514   */\n      dup3\n        /* \"#utility.yul\":3422:3515   */\n      tag_52\n      jump\t// in\n    tag_99:\n        /* \"#utility.yul\":3540:3541   */\n      0x00\n        /* \"#utility.yul\":3535:3538   */\n      dup3\n        /* \"#utility.yul\":3531:3542   */\n      add\n        /* \"#utility.yul\":3524:3542   */\n      swap1\n      pop\n        /* \"#utility.yul\":3150:3548   */\n      swap2\n      swap1\n      pop\n      jump\t// out\n        /* \"#utility.yul\":3554:3933   */\n    tag_28:\n        /* \"#utility.yul\":3738:3741   */\n      0x00\n        /* \"#utility.yul\":3760:3907   */\n      tag_101\n        /* \"#utility.yul\":3903:3906   */\n      dup3\n        /* \"#utility.yul\":3760:3907   */\n      tag_53\n      jump\t// in\n    tag_101:\n        /* \"#utility.yul\":3753:3907   */\n      swap2\n      pop\n        /* \"#utility.yul\":3924:3927   */\n      dup2\n        /* \"#utility.yul\":3917:3927   */\n      swap1\n      pop\n        /* \"#utility.yul\":3554:3933   */\n      swap2\n      swap1\n      pop\n      jump\t// out\n        /* \"#utility.yul\":3939:3999   */\n    tag_54:\n        /* \"#utility.yul\":3967:3970   */\n      0x00\n        /* \"#utility.yul\":3988:3993   */\n      dup2\n        /* \"#utility.yul\":3981:3993   */\n      swap1\n      pop\n        /* \"#utility.yul\":3939:3999   */\n      swap2\n      swap1\n      pop\n      jump\t// out\n        /* \"#utility.yul\":4005:4147   */\n    tag_55:\n        /* \"#utility.yul\":4055:4064   */\n      0x00\n        /* \"#utility.yul\":4088:4141   */\n      tag_104\n        /* \"#utility.yul\":4106:4140   */\n      tag_105\n        /* \"#utility.yul\":4115:4139   */\n      tag_106\n        /* \"#utility.yul\":4133:4138   */\n      dup5\n        /* \"#utility.yul\":4115:4139   */\n      tag_41\n      jump\t// in\n    tag_106:\n        /* \"#utility.yul\":4106:4140   */\n      tag_54\n      jump\t// in\n    tag_105:\n        /* \"#utility.yul\":4088:4141   */\n      tag_41\n      jump\t// in\n    tag_104:\n        /* \"#utility.yul\":4075:4141   */\n      swap1\n      pop\n        /* \"#utility.yul\":4005:4147   */\n      swap2\n      swap1\n      pop\n      jump\t// out\n        /* \"#utility.yul\":4153:4279   */\n    tag_56:\n        /* \"#utility.yul\":4203:4212   */\n      0x00\n        /* \"#utility.yul\":4236:4273   */\n      tag_108\n        /* \"#utility.yul\":4267:4272   */\n      dup3\n        /* \"#utility.yul\":4236:4273   */\n      tag_55\n      jump\t// in\n    tag_108:\n        /* \"#utility.yul\":4223:4273   */\n      swap1\n      pop\n        /* \"#utility.yul\":4153:4279   */\n      swap2\n      swap1\n      pop\n      jump\t// out\n        /* \"#utility.yul\":4285:4419   */\n    tag_57:\n        /* \"#utility.yul\":4343:4352   */\n      0x00\n        /* \"#utility.yul\":4376:4413   */\n      tag_110\n        /* \"#utility.yul\":4407:4412   */\n      dup3\n        /* \"#utility.yul\":4376:4413   */\n      tag_56\n      jump\t// in\n    tag_110:\n        /* \"#utility.yul\":4363:4413   */\n      swap1\n      pop\n        /* \"#utility.yul\":4285:4419   */\n      swap2\n      swap1\n      pop\n      jump\t// out\n        /* \"#utility.yul\":4425:4572   */\n    tag_58:\n        /* \"#utility.yul\":4520:4565   */\n      tag_112\n        /* \"#utility.yul\":4559:4564   */\n      dup2\n        /* \"#utility.yul\":4520:4565   */\n      tag_57\n      jump\t// in\n    tag_112:\n        /* \"#utility.yul\":4515:4518   */\n      dup3\n        /* \"#utility.yul\":4508:4566   */\n      mstore\n        /* \"#utility.yul\":4425:4572   */\n      pop\n      pop\n      jump\t// out\n        /* \"#utility.yul\":4578:4926   */\n    tag_34:\n        /* \"#utility.yul\":4707:4711   */\n      0x00\n        /* \"#utility.yul\":4745:4747   */\n      0x40\n        /* \"#utility.yul\":4734:4743   */\n      dup3\n        /* \"#utility.yul\":4730:4748   */\n      add\n        /* \"#utility.yul\":4722:4748   */\n      swap1\n      pop\n        /* \"#utility.yul\":4758:4829   */\n      tag_114\n        /* \"#utility.yul\":4826:4827   */\n      0x00\n        /* \"#utility.yul\":4815:4824   */\n      dup4\n        /* \"#utility.yul\":4811:4828   */\n      add\n        /* \"#utility.yul\":4802:4808   */\n      dup6\n        /* \"#utility.yul\":4758:4829   */\n      tag_48\n      jump\t// in\n    tag_114:\n        /* \"#utility.yul\":4839:4919   */\n      tag_115\n        /* \"#utility.yul\":4915:4917   */\n      0x20\n        /* \"#utility.yul\":4904:4913   */\n      dup4\n        /* \"#utility.yul\":4900:4918   */\n      add\n        /* \"#utility.yul\":4891:4897   */\n      dup5\n        /* \"#utility.yul\":4839:4919   */\n      tag_58\n      jump\t// in\n    tag_115:\n        /* \"#utility.yul\":4578:4926   */\n      swap4\n      swap3\n      pop\n      pop\n      pop\n      jump\t// out\n\n    auxdata: 0xa26469706673582212205c1332f365478926d9f2391bf7a3ae41309657066f1ce86c1048dbbafec3443764736f6c634300081e0033\n}\n",
				"bytecode": {
					"linkReferences": {},
					"object": "6080604052348015600e575f5ffd5b50335f5f6101000a81548173ffffffffffffffffffffffffffffffffffffffff021916908373ffffffffffffffffffffffffffffffffffffffff1602179055506104718061005b5f395ff3fe60806040526004361061003e575f3560e01c806349dcbc5e146100425780636f9fb98a1461005e5780638da5cb5b14610088578063d0e30db0146100b2575b5f5ffd5b61005c600480360381019061005791906102b2565b6100bc565b005b348015610069575f5ffd5b506100726101f4565b60405161007f91906102ff565b60405180910390f35b348015610093575f5ffd5b5061009c6101fb565b6040516100a99190610338565b60405180910390f35b6100ba61021f565b005b805f479050808211156101085780826040517f03eb8b540000000000000000000000000000000000000000000000000000000081526004016100ff929190610351565b60405180910390fd5b5f8473ffffffffffffffffffffffffffffffffffffffff168460405161012d906103a5565b5f6040518083038185875af1925050503d805f8114610167576040519150601f19603f3d011682016040523d82523d5f602084013e61016c565b606091505b50509050806101b45783856040517fca7736030000000000000000000000000000000000000000000000000000000081526004016101ab929190610414565b60405180910390fd5b7f4ee1338359c1b5a98bc94ce977ede958f48bd5d443611d7e0845cb5f36f17dde84866040516101e5929190610414565b60405180910390a15050505050565b5f47905090565b5f5f9054906101000a900473ffffffffffffffffffffffffffffffffffffffff1681565b565b5f5ffd5b5f73ffffffffffffffffffffffffffffffffffffffff82169050919050565b5f61024e82610225565b9050919050565b61025e81610244565b8114610268575f5ffd5b50565b5f8135905061027981610255565b92915050565b5f819050919050565b6102918161027f565b811461029b575f5ffd5b50565b5f813590506102ac81610288565b92915050565b5f5f604083850312156102c8576102c7610221565b5b5f6102d58582860161026b565b92505060206102e68582860161029e565b9150509250929050565b6102f98161027f565b82525050565b5f6020820190506103125f8301846102f0565b92915050565b5f61032282610225565b9050919050565b61033281610318565b82525050565b5f60208201905061034b5f830184610329565b92915050565b5f6040820190506103645f8301856102f0565b61037160208301846102f0565b9392505050565b5f81905092915050565b50565b5f6103905f83610378565b915061039b82610382565b5f82019050919050565b5f6103af82610385565b9150819050919050565b5f819050919050565b5f6103dc6103d76103d284610225565b6103b9565b610225565b9050919050565b5f6103ed826103c2565b9050919050565b5f6103fe826103e3565b9050919050565b61040e816103f4565b82525050565b5f6040820190506104275f8301856102f0565b6104346020830184610405565b939250505056fea26469706673582212205c1332f365478926d9f2391bf7a3ae41309657066f1ce86c1048dbbafec3443764736f6c634300081e0033",
					"opcodes": "PUSH1 0x80 PUSH1 0x40 MSTORE CALLVALUE DUP1 ISZERO PUSH1 0xE JUMPI PUSH0 PUSH0 REVERT JUMPDEST POP CALLER PUSH0 PUSH0 PUSH2 0x100 EXP DUP2 SLOAD DUP2 PUSH20 0xFFFFFFFFFFFFFFFFFFFFFFFFFFFFFFFFFFFFFFFF MUL NOT AND SWAP1 DUP4 PUSH20 0xFFFFFFFFFFFFFFFFFFFFFFFFFFFFFFFFFFFFFFFF AND MUL OR SWAP1 SSTORE POP PUSH2 0x471 DUP1 PUSH2 0x5B PUSH0 CODECOPY PUSH0 RETURN INVALID PUSH1 0x80 PUSH1 0x40 MSTORE PUSH1 0x4 CALLDATASIZE LT PUSH2 0x3E JUMPI PUSH0 CALLDATALOAD PUSH1 0xE0 SHR DUP1 PUSH4 0x49DCBC5E EQ PUSH2 0x42 JUMPI DUP1 PUSH4 0x6F9FB98A EQ PUSH2 0x5E JUMPI DUP1 PUSH4 0x8DA5CB5B EQ PUSH2 0x88 JUMPI DUP1 PUSH4 0xD0E30DB0 EQ PUSH2 0xB2 JUMPI JUMPDEST PUSH0 PUSH0 REVERT JUMPDEST PUSH2 0x5C PUSH1 0x4 DUP1 CALLDATASIZE SUB DUP2 ADD SWAP1 PUSH2 0x57 SWAP2 SWAP1 PUSH2 0x2B2 JUMP JUMPDEST PUSH2 0xBC JUMP JUMPDEST STOP JUMPDEST CALLVALUE DUP1 ISZERO PUSH2 0x69 JUMPI PUSH0 PUSH0 REVERT JUMPDEST POP PUSH2 0x72 PUSH2 0x1F4 JUMP JUMPDEST PUSH1 0x40 MLOAD PUSH2 0x7F SWAP2 SWAP1 PUSH2 0x2FF JUMP JUMPDEST PUSH1 0x40 MLOAD DUP1 SWAP2 SUB SWAP1 RETURN JUMPDEST CALLVALUE DUP1 ISZERO PUSH2 0x93 JUMPI PUSH0 PUSH0 REVERT JUMPDEST POP PUSH2 0x9C PUSH2 0x1FB JUMP JUMPDEST PUSH1 0x40 MLOAD PUSH2 0xA9 SWAP2 SWAP1 PUSH2 0x338 JUMP JUMPDEST PUSH1 0x40 MLOAD DUP1 SWAP2 SUB SWAP1 RETURN JUMPDEST PUSH2 0xBA PUSH2 0x21F JUMP JUMPDEST STOP JUMPDEST DUP1 PUSH0 SELFBALANCE SWAP1 POP DUP1 DUP3 GT ISZERO PUSH2 0x108 JUMPI DUP1 DUP3 PUSH1 0x40 MLOAD PUSH32 0x3EB8B5400000000000000000000000000000000000000000000000000000000 DUP2 MSTORE PUSH1 0x4 ADD PUSH2 0xFF SWAP3 SWAP2 SWAP1 PUSH2 0x351 JUMP JUMPDEST PUSH1 0x40 MLOAD DUP1 SWAP2 SUB SWAP1 REVERT JUMPDEST PUSH0 DUP5 PUSH20 0xFFFFFFFFFFFFFFFFFFFFFFFFFFFFFFFFFFFFFFFF AND DUP5 PUSH1 0x40 MLOAD PUSH2 0x12D SWAP1 PUSH2 0x3A5 JUMP JUMPDEST PUSH0 PUSH1 0x40 MLOAD DUP1 DUP4 SUB DUP2 DUP6 DUP8 GAS CALL SWAP3 POP POP POP RETURNDATASIZE DUP1 PUSH0 DUP2 EQ PUSH2 0x167 JUMPI PUSH1 0x40 MLOAD SWAP2 POP PUSH1 0x1F NOT PUSH1 0x3F RETURNDATASIZE ADD AND DUP3 ADD PUSH1 0x40 MSTORE RETURNDATASIZE DUP3 MSTORE RETURNDATASIZE PUSH0 PUSH1 0x20 DUP5 ADD RETURNDATACOPY PUSH2 0x16C JUMP JUMPDEST PUSH1 0x60 SWAP2 POP JUMPDEST POP POP SWAP1 POP DUP1 PUSH2 0x1B4 JUMPI DUP4 DUP6 PUSH1 0x40 MLOAD PUSH32 0xCA77360300000000000000000000000000000000000000000000000000000000 DUP2 MSTORE PUSH1 0x4 ADD PUSH2 0x1AB SWAP3 SWAP2 SWAP1 PUSH2 0x414 JUMP JUMPDEST PUSH1 0x40 MLOAD DUP1 SWAP2 SUB SWAP1 REVERT JUMPDEST PUSH32 0x4EE1338359C1B5A98BC94CE977EDE958F48BD5D443611D7E0845CB5F36F17DDE DUP5 DUP7 PUSH1 0x40 MLOAD PUSH2 0x1E5 SWAP3 SWAP2 SWAP1 PUSH2 0x414 JUMP JUMPDEST PUSH1 0x40 MLOAD DUP1 SWAP2 SUB SWAP1 LOG1 POP POP POP POP POP JUMP JUMPDEST PUSH0 SELFBALANCE SWAP1 POP SWAP1 JUMP JUMPDEST PUSH0 PUSH0 SWAP1 SLOAD SWAP1 PUSH2 0x100 EXP SWAP1 DIV PUSH20 0xFFFFFFFFFFFFFFFFFFFFFFFFFFFFFFFFFFFFFFFF AND DUP2 JUMP JUMPDEST JUMP JUMPDEST PUSH0 PUSH0 REVERT JUMPDEST PUSH0 PUSH20 0xFFFFFFFFFFFFFFFFFFFFFFFFFFFFFFFFFFFFFFFF DUP3 AND SWAP1 POP SWAP2 SWAP1 POP JUMP JUMPDEST PUSH0 PUSH2 0x24E DUP3 PUSH2 0x225 JUMP JUMPDEST SWAP1 POP SWAP2 SWAP1 POP JUMP JUMPDEST PUSH2 0x25E DUP2 PUSH2 0x244 JUMP JUMPDEST DUP2 EQ PUSH2 0x268 JUMPI PUSH0 PUSH0 REVERT JUMPDEST POP JUMP JUMPDEST PUSH0 DUP2 CALLDATALOAD SWAP1 POP PUSH2 0x279 DUP2 PUSH2 0x255 JUMP JUMPDEST SWAP3 SWAP2 POP POP JUMP JUMPDEST PUSH0 DUP2 SWAP1 POP SWAP2 SWAP1 POP JUMP JUMPDEST PUSH2 0x291 DUP2 PUSH2 0x27F JUMP JUMPDEST DUP2 EQ PUSH2 0x29B JUMPI PUSH0 PUSH0 REVERT JUMPDEST POP JUMP JUMPDEST PUSH0 DUP2 CALLDATALOAD SWAP1 POP PUSH2 0x2AC DUP2 PUSH2 0x288 JUMP JUMPDEST SWAP3 SWAP2 POP POP JUMP JUMPDEST PUSH0 PUSH0 PUSH1 0x40 DUP4 DUP6 SUB SLT ISZERO PUSH2 0x2C8 JUMPI PUSH2 0x2C7 PUSH2 0x221 JUMP JUMPDEST JUMPDEST PUSH0 PUSH2 0x2D5 DUP6 DUP3 DUP7 ADD PUSH2 0x26B JUMP JUMPDEST SWAP3 POP POP PUSH1 0x20 PUSH2 0x2E6 DUP6 DUP3 DUP7 ADD PUSH2 0x29E JUMP JUMPDEST SWAP2 POP POP SWAP3 POP SWAP3 SWAP1 POP JUMP JUMPDEST PUSH2 0x2F9 DUP2 PUSH2 0x27F JUMP JUMPDEST DUP3 MSTORE POP POP JUMP JUMPDEST PUSH0 PUSH1 0x20 DUP3 ADD SWAP1 POP PUSH2 0x312 PUSH0 DUP4 ADD DUP5 PUSH2 0x2F0 JUMP JUMPDEST SWAP3 SWAP2 POP POP JUMP JUMPDEST PUSH0 PUSH2 0x322 DUP3 PUSH2 0x225 JUMP JUMPDEST SWAP1 POP SWAP2 SWAP1 POP JUMP JUMPDEST PUSH2 0x332 DUP2 PUSH2 0x318 JUMP JUMPDEST DUP3 MSTORE POP POP JUMP JUMPDEST PUSH0 PUSH1 0x20 DUP3 ADD SWAP1 POP PUSH2 0x34B PUSH0 DUP4 ADD DUP5 PUSH2 0x329 JUMP JUMPDEST SWAP3 SWAP2 POP POP JUMP JUMPDEST PUSH0 PUSH1 0x40 DUP3 ADD SWAP1 POP PUSH2 0x364 PUSH0 DUP4 ADD DUP6 PUSH2 0x2F0 JUMP JUMPDEST PUSH2 0x371 PUSH1 0x20 DUP4 ADD DUP5 PUSH2 0x2F0 JUMP JUMPDEST SWAP4 SWAP3 POP POP POP JUMP JUMPDEST PUSH0 DUP2 SWAP1 POP SWAP3 SWAP2 POP POP JUMP JUMPDEST POP JUMP JUMPDEST PUSH0 PUSH2 0x390 PUSH0 DUP4 PUSH2 0x378 JUMP JUMPDEST SWAP2 POP PUSH2 0x39B DUP3 PUSH2 0x382 JUMP JUMPDEST PUSH0 DUP3 ADD SWAP1 POP SWAP2 SWAP1 POP JUMP JUMPDEST PUSH0 PUSH2 0x3AF DUP3 PUSH2 0x385 JUMP JUMPDEST SWAP2 POP DUP2 SWAP1 POP SWAP2 SWAP1 POP JUMP JUMPDEST PUSH0 DUP2 SWAP1 POP SWAP2 SWAP1 POP JUMP JUMPDEST PUSH0 PUSH2 0x3DC PUSH2 0x3D7 PUSH2 0x3D2 DUP5 PUSH2 0x225 JUMP JUMPDEST PUSH2 0x3B9 JUMP JUMPDEST PUSH2 0x225 JUMP JUMPDEST SWAP1 POP SWAP2 SWAP1 POP JUMP JUMPDEST PUSH0 PUSH2 0x3ED DUP3 PUSH2 0x3C2 JUMP JUMPDEST SWAP1 POP SWAP2 SWAP1 POP JUMP JUMPDEST PUSH0 PUSH2 0x3FE DUP3 PUSH2 0x3E3 JUMP JUMPDEST SWAP1 POP SWAP2 SWAP1 POP JUMP JUMPDEST PUSH2 0x40E DUP2 PUSH2 0x3F4 JUMP JUMPDEST DUP3 MSTORE POP POP JUMP JUMPDEST PUSH0 PUSH1 0x40 DUP3 ADD SWAP1 POP PUSH2 0x427 PUSH0 DUP4 ADD DUP6 PUSH2 0x2F0 JUMP JUMPDEST PUSH2 0x434 PUSH1 0x20 DUP4 ADD DUP5 PUSH2 0x405 JUMP JUMPDEST SWAP4 SWAP3 POP POP POP JUMP INVALID LOG2 PUSH5 0x6970667358 0x22 SLT KECCAK256 TLOAD SGT ORIGIN RETURN PUSH6 0x478926D9F239 SHL 0xF7 LOG3 0xAE COINBASE ADDRESS SWAP7 JUMPI MOD PUSH16 0x1CE86C1048DBBAFEC3443764736F6C63 NUMBER STOP ADDMOD 0x1E STOP CALLER "
				},
				"gasEstimates": {
					"creation": {
						"codeDepositCost": "227400",
						"executionCost": "24531",
						"totalCost": "251931"
					},
					"external": {
						"deposit()": "163",
						"getContractBalance()": "334",
						"owner()": "2529",
						"sendEth(address,uint256)": "infinite"
					}
				},
				"methodIdentifiers": {
					"deposit()": "d0e30db0",
					"getContractBalance()": "6f9fb98a",
					"owner()": "8da5cb5b",
					"sendEth(address,uint256)": "49dcbc5e"
				}
			},
			"storageLayout": {
				"storage": [
					{
						"astId": 11,
						"contract": "contracts/EthSender.sol:EthSender",
						"label": "owner",
						"offset": 0,
						"slot": "0",
						"type": "t_address"
					},
					{
						"astId": 14,
						"contract": "contracts/EthSender.sol:EthSender",
						"label": "recipientWallet",
						"offset": 0,
						"slot": "1",
						"type": "t_contract(EthWallet)197"
					}
				],
				"types": {
					"t_address": {
						"encoding": "inplace",
						"label": "address",
						"numberOfBytes": "20"
					},
					"t_contract(EthWallet)197": {
						"encoding": "inplace",
						"label": "contract EthWallet",
						"numberOfBytes": "20"
					}
				}
			},
			"userdoc": {
				"kind": "user",
				"methods": {},
				"version": 1
			}
		}
	}
}